{
  "contractName": "TokenSwap",
  "abi": [
    {
      "constant": true,
      "inputs": [],
      "name": "PPM",
      "outputs": [
        {
          "name": "",
          "type": "uint32"
        }
      ],
      "payable": false,
      "stateMutability": "view",
      "type": "function"
    },
    {
      "constant": true,
      "inputs": [],
      "name": "formula",
      "outputs": [
        {
          "name": "",
          "type": "address"
        }
      ],
      "payable": false,
      "stateMutability": "view",
      "type": "function"
    },
    {
      "constant": true,
      "inputs": [
        {
          "name": "",
          "type": "uint256"
        }
      ],
      "name": "tokens",
      "outputs": [
        {
          "name": "",
          "type": "address"
        }
      ],
      "payable": false,
      "stateMutability": "view",
      "type": "function"
    },
    {
      "constant": true,
      "inputs": [
        {
          "name": "",
          "type": "uint256"
        }
      ],
      "name": "pools",
      "outputs": [
        {
          "name": "provider",
          "type": "address"
        },
        {
          "name": "tokenAsupply",
          "type": "uint256"
        },
        {
          "name": "tokenBsupply",
          "type": "uint256"
        },
        {
          "name": "reserveRatio",
          "type": "uint32"
        },
        {
          "name": "exchageRate",
          "type": "uint256"
        },
        {
          "name": "slippage",
          "type": "uint256"
        },
        {
          "name": "isActive",
          "type": "bool"
        },
        {
          "name": "tokenA",
          "type": "address"
        },
        {
          "name": "tokenB",
          "type": "address"
        }
      ],
      "payable": false,
      "stateMutability": "view",
      "type": "function"
    },
    {
      "constant": true,
      "inputs": [],
      "name": "PCT_BASE",
      "outputs": [
        {
          "name": "",
          "type": "uint256"
        }
      ],
      "payable": false,
      "stateMutability": "view",
      "type": "function"
    },
    {
      "anonymous": false,
      "inputs": [
        {
          "indexed": true,
          "name": "provider",
          "type": "address"
        },
        {
          "indexed": false,
          "name": "id",
          "type": "uint256"
        },
        {
          "indexed": false,
          "name": "tokenAsupply",
          "type": "uint256"
        },
        {
          "indexed": false,
          "name": "tokenBsupply",
          "type": "uint256"
        },
        {
          "indexed": false,
          "name": "exchangeRate",
          "type": "uint256"
        }
      ],
      "name": "PoolCreated",
      "type": "event"
    },
    {
      "anonymous": false,
      "inputs": [
        {
          "indexed": true,
          "name": "reciever",
          "type": "address"
        },
        {
          "indexed": false,
          "name": "id",
          "type": "uint256"
        },
        {
          "indexed": false,
          "name": "tokenAsupply",
          "type": "uint256"
        },
        {
          "indexed": false,
          "name": "tokenBsupply",
          "type": "uint256"
        },
        {
          "indexed": false,
          "name": "exchangeRate",
          "type": "uint256"
        }
      ],
      "name": "PoolDataUpdated",
      "type": "event"
    },
    {
      "anonymous": false,
      "inputs": [
        {
          "indexed": true,
          "name": "provider",
          "type": "address"
        },
        {
          "indexed": false,
          "name": "id",
          "type": "uint256"
        }
      ],
      "name": "PoolClosed",
      "type": "event"
    },
    {
      "anonymous": false,
      "inputs": [
        {
          "indexed": true,
          "name": "token",
          "type": "address"
        },
        {
          "indexed": false,
          "name": "id",
          "type": "uint256"
        }
      ],
      "name": "TokenInitialized",
      "type": "event"
    },
    {
      "anonymous": false,
      "inputs": [
        {
          "indexed": true,
          "name": "buyer",
          "type": "address"
        },
        {
          "indexed": false,
          "name": "poolid",
          "type": "uint256"
        },
        {
          "indexed": false,
          "name": "amount",
          "type": "uint256"
        }
      ],
      "name": "TokenBought",
      "type": "event"
    },
    {
      "anonymous": false,
      "inputs": [
        {
          "indexed": true,
          "name": "buyer",
          "type": "address"
        },
        {
          "indexed": false,
          "name": "poolid",
          "type": "uint256"
        },
        {
          "indexed": false,
          "name": "amount",
          "type": "uint256"
        }
      ],
      "name": "TokenSold",
      "type": "event"
    },
    {
      "constant": false,
      "inputs": [
        {
          "name": "_formula",
          "type": "address"
        }
      ],
      "name": "initialize",
      "outputs": [],
      "payable": false,
      "stateMutability": "nonpayable",
      "type": "function"
    },
    {
      "constant": false,
      "inputs": [
        {
          "name": "_tokenAaddress",
          "type": "address"
        },
        {
          "name": "_tokenBaddress",
          "type": "address"
        },
        {
          "name": "_tokenAsupply",
          "type": "uint256"
        },
        {
          "name": "_tokenBsupply",
          "type": "uint256"
        },
        {
          "name": "_slippage",
          "type": "uint256"
        },
        {
          "name": "_exchangeRate",
          "type": "uint256"
        }
      ],
      "name": "createPool",
      "outputs": [],
      "payable": false,
      "stateMutability": "nonpayable",
      "type": "function"
    },
    {
      "constant": false,
      "inputs": [
        {
          "name": "_poolId",
          "type": "uint256"
        }
      ],
      "name": "closePool",
      "outputs": [],
      "payable": false,
      "stateMutability": "nonpayable",
      "type": "function"
    },
    {
      "constant": false,
      "inputs": [
        {
          "name": "_poolId",
          "type": "uint256"
        },
        {
          "name": "_tokenAliquidity",
          "type": "uint256"
        },
        {
          "name": "_tokenBliquidity",
          "type": "uint256"
        }
      ],
      "name": "addLiquidity",
      "outputs": [],
      "payable": false,
      "stateMutability": "nonpayable",
      "type": "function"
    },
    {
      "constant": false,
      "inputs": [
        {
          "name": "_poolId",
          "type": "uint256"
        },
        {
          "name": "_tokenAliquidity",
          "type": "uint256"
        },
        {
          "name": "_tokenBliquidity",
          "type": "uint256"
        }
      ],
      "name": "removeLiquidity",
      "outputs": [],
      "payable": false,
      "stateMutability": "nonpayable",
      "type": "function"
    },
    {
      "constant": false,
      "inputs": [
        {
          "name": "_poolId",
          "type": "uint256"
        },
        {
          "name": "_tokenAamount",
          "type": "uint256"
        }
      ],
      "name": "buy",
      "outputs": [],
      "payable": false,
      "stateMutability": "nonpayable",
      "type": "function"
    },
    {
      "constant": false,
      "inputs": [
        {
          "name": "_poolId",
          "type": "uint256"
        },
        {
          "name": "_tokenBamount",
          "type": "uint256"
        }
      ],
      "name": "sell",
      "outputs": [],
      "payable": false,
      "stateMutability": "nonpayable",
      "type": "function"
    }
  ],
  "bytecode": "0x608060405234801561001057600080fd5b50612cea806100206000396000f3006080604052600436106100a05763ffffffff60e060020a6000350416630d720bbc81146100a557806337de615f146100d3578063422f1043146100ed5780634b75f54f1461010b5780634f64b2be1461013c578063857620e114610154578063ac4afa3814610172578063c4d66de8146101eb578063d6febde81461020c578063d79875eb14610227578063e48b39f214610242578063fc157cb414610275575b600080fd5b3480156100b157600080fd5b506100ba61029c565b6040805163ffffffff9092168252519081900360200190f35b3480156100df57600080fd5b506100eb6004356102a3565b005b3480156100f957600080fd5b506100eb600435602435604435610439565b34801561011757600080fd5b506101206106cf565b60408051600160a060020a039092168252519081900360200190f35b34801561014857600080fd5b506101206004356106de565b34801561016057600080fd5b506100eb600435602435604435610706565b34801561017e57600080fd5b5061018a600435610925565b60408051600160a060020a039a8b16815260208101999099528881019790975263ffffffff9095166060880152608087019390935260a0860191909152151560c0850152841660e08401529092166101008201529051908190036101200190f35b3480156101f757600080fd5b506100eb600160a060020a0360043516610999565b34801561021857600080fd5b506100eb6004356024356109c8565b34801561023357600080fd5b506100eb600435602435610c2e565b34801561024e57600080fd5b506100eb600160a060020a036004358116906024351660443560643560843560a435610df7565b34801561028157600080fd5b5061028a610fe2565b60408051918252519081900360200190f35b620f424081565b60028054829081106102b157fe5b6000918252602091829020600891909102015460408051808201909152600f81527f4d4d5f4e4f545f50524f5649444552000000000000000000000000000000000092810192909252600160a060020a031633146103905760405160e560020a62461bcd0281526004018080602001828103825283818151815260200191508051906020019080838360005b8381101561035557818101518382015260200161033d565b50505050905090810190601f1680156103825780820380516001836020036101000a031916815260200191505b509250505060405180910390fd5b50600280548290811061039f57fe5b6000918252602091829020600660089092020101546040805180820190915260128152600080516020612c9f8339815191529281019290925260ff16151561042c5760405160e560020a62461bcd0281526004018080602001828103825283818151815260200191508051906020019080838360008381101561035557818101518382015260200161033d565b5061043681610fee565b50565b60008060028581548110151561044b57fe5b6000918252602091829020600891909102015460408051808201909152600f81527f4d4d5f4e4f545f50524f5649444552000000000000000000000000000000000092810192909252600160a060020a031633146104ee5760405160e560020a62461bcd0281526004018080602001828103825283818151815260200191508051906020019080838360008381101561035557818101518382015260200161033d565b5060028054869081106104fd57fe5b6000918252602091829020600660089092020101546040805180820190915260128152600080516020612c9f8339815191529281019290925260ff16151561058a5760405160e560020a62461bcd0281526004018080602001828103825283818151815260200191508051906020019080838360008381101561035557818101518382015260200161033d565b506003600060028781548110151561059e57fe5b906000526020600020906008020160060160019054906101000a9004600160a060020a0316600160a060020a0316600160a060020a03168152602001908152602001600020549150600360006002878154811015156105f957fe5b6000918252602080832060076008909302019190910154600160a060020a03168352820192909252604001902054905061063482853361148c565b8015610646575061064681843361148c565b6040805180820190915260178152600080516020612c7f83398151915260208201529015156106ba5760405160e560020a62461bcd0281526004018080602001828103825283818151815260200191508051906020019080838360008381101561035557818101518382015260200161033d565b506106c88583838787611549565b5050505050565b600054600160a060020a031681565b60018054829081106106ec57fe5b600091825260209091200154600160a060020a0316905081565b600280548490811061071457fe5b6000918252602091829020600891909102015460408051808201909152600f81527f4d4d5f4e4f545f50524f5649444552000000000000000000000000000000000092810192909252600160a060020a031633146107b75760405160e560020a62461bcd0281526004018080602001828103825283818151815260200191508051906020019080838360008381101561035557818101518382015260200161033d565b5060028054849081106107c657fe5b6000918252602091829020600660089092020101546040805180820190915260128152600080516020612c9f8339815191529281019290925260ff1615156108535760405160e560020a62461bcd0281526004018080602001828103825283818151815260200191508051906020019080838360008381101561035557818101518382015260200161033d565b50600280548490811061086257fe5b906000526020600020906008020160010154821080156108a05750600280548490811061088b57fe5b90600052602060002090600802016002015481105b6040805180820190915260178152600080516020612c7f83398151915260208201529015156109145760405160e560020a62461bcd0281526004018080602001828103825283818151815260200191508051906020019080838360008381101561035557818101518382015260200161033d565b50610920838383611731565b505050565b600280548290811061093357fe5b600091825260209091206008909102018054600182015460028301546003840154600485015460058601546006870154600790970154600160a060020a0396871698509496939563ffffffff909316949193909260ff8216926101009092048116911689565b6000805473ffffffffffffffffffffffffffffffffffffffff1916600160a060020a0392909216919091179055565b60008060006002858154811015156109dc57fe5b6000918252602091829020600660089092020101546040805180820190915260128152600080516020612c9f8339815191529281019290925260ff161515610a695760405160e560020a62461bcd0281526004018080602001828103825283818151815260200191508051906020019080838360008381101561035557818101518382015260200161033d565b5060036000600287815481101515610a7d57fe5b906000526020600020906008020160060160019054906101000a9004600160a060020a0316600160a060020a0316600160a060020a0316815260200190815260200160002054925060036000600287815481101515610ad857fe5b6000918252602080832060076008909302019190910154600160a060020a03168352820192909252604001902054600180549193509083908110610b1857fe5b9060005260206000200160009054906101000a9004600160a060020a0316600160a060020a03166318160ddd6040518163ffffffff1660e060020a028152600401602060405180830381600087803b158015610b7357600080fd5b505af1158015610b87573d6000803e3d6000fd5b505050506040513d6020811015610b9d57600080fd5b50519050610bac83853361148c565b6040805180820190915260178152600080516020612c7f8339815191526020820152901515610c205760405160e560020a62461bcd0281526004018080602001828103825283818151815260200191508051906020019080838360008381101561035557818101518382015260200161033d565b506106c88584848785611978565b600080600060036000600287815481101515610c4657fe5b906000526020600020906008020160060160019054906101000a9004600160a060020a0316600160a060020a0316600160a060020a0316815260200190815260200160002054925060036000600287815481101515610ca157fe5b6000918252602080832060076008909302019190910154600160a060020a03168352820192909252604001902054600180549193509083908110610ce157fe5b9060005260206000200160009054906101000a9004600160a060020a0316600160a060020a03166318160ddd6040518163ffffffff1660e060020a028152600401602060405180830381600087803b158015610d3c57600080fd5b505af1158015610d50573d6000803e3d6000fd5b505050506040513d6020811015610d6657600080fd5b50519050610d7582853361148c565b6040805180820190915260178152600080516020612c7f8339815191526020820152901515610de95760405160e560020a62461bcd0281526004018080602001828103825283818151815260200191508051906020019080838360008381101561035557818101518382015260200161033d565b506106c88584848785611d8d565b610e0284848361222e565b60408051808201909152601481527f4d4d5f504f4f4c5f4e4f545f42414c414e4345440000000000000000000000006020820152901515610e885760405160e560020a62461bcd0281526004018080602001828103825283818151815260200191508051906020019080838360008381101561035557818101518382015260200161033d565b5033600090815260056020908152604080832081516c01000000000000000000000000600160a060020a038c81168202838701528b1602603482015282516028818303018152604890910192839052805191949390929182918401908083835b60208310610f075780518252601f199092019160209182019101610ee8565b51815160001960209485036101000a01908116901991909116179052604080519490920184900390932086528583019690965250928401600020548451808601909552600e85527f4d4d5f504f4f4c5f45584953545300000000000000000000000000000000000093850193909352505060ff1615610fcb5760405160e560020a62461bcd0281526004018080602001828103825283818151815260200191508051906020019080838360008381101561035557818101518382015260200161033d565b50610fda86868686868661224b565b505050505050565b670de0b6b3a764000081565b6000806003600060028581548110151561100457fe5b906000526020600020906008020160060160019054906101000a9004600160a060020a0316600160a060020a0316600160a060020a031681526020019081526020016000205491506003600060028581548110151561105f57fe5b6000918252602080832060076008909302019190910154600160a060020a0316835282019290925260400190205460018054919250908390811061109f57fe5b60009182526020909120015460028054600160a060020a039092169163a9059cbb913391879081106110cd57fe5b9060005260206000209060080201600101546040518363ffffffff1660e060020a0281526004018083600160a060020a0316600160a060020a0316815260200182815260200192505050602060405180830381600087803b15801561113157600080fd5b505af1158015611145573d6000803e3d6000fd5b505050506040513d602081101561115b57600080fd5b5050600180548290811061116b57fe5b60009182526020909120015460028054600160a060020a039092169163a9059cbb9133918790811061119957fe5b9060005260206000209060080201600201546040518363ffffffff1660e060020a0281526004018083600160a060020a0316600160a060020a0316815260200182815260200192505050602060405180830381600087803b1580156111fd57600080fd5b505af1158015611211573d6000803e3d6000fd5b505050506040513d602081101561122757600080fd5b505060028054600091908590811061123b57fe5b60009182526020822060089190910201600601805460ff191692151592909217909155600280548590811061126c57fe5b906000526020600020906008020160010181905550600060028481548110151561129257fe5b90600052602060002090600802016002018190555060006002848154811015156112b857fe5b60009182526020822060089190910201600301805463ffffffff191663ffffffff939093169290921790915560028054859081106112f257fe5b906000526020600020906008020160050181905550600060028481548110151561131857fe5b6000918252602080832060046008909302019190910192909255338152600590915260408120600280548391908790811061134f57fe5b906000526020600020906008020160060160019054906101000a9004600160a060020a031660028781548110151561138357fe5b600091825260209182902060076008909202010154604080516c01000000000000000000000000600160a060020a03958616810282860152949092169390930260348201528251602881830301815260489091019283905280519092918291908401908083835b602083106114095780518252601f1990920191602091820191016113ea565b51815160209384036101000a6000190180199092169116179052604080519290940182900390912086528581019690965250928301600020805460ff19169515159590951790945550805186815290513393507f54d833a6369fbb6af4373700bdaf73d7a1ad1be05825bc9475be295d43a5d7bb929181900390910190a2505050565b60008060018581548110151561149e57fe5b6000918252602080832090910154604080517f70a08231000000000000000000000000000000000000000000000000000000008152600160a060020a038881166004830152915191909216936370a0823193602480850194919392918390030190829087803b15801561151057600080fd5b505af1158015611524573d6000803e3d6000fd5b505050506040513d602081101561153a57600080fd5b50519390931015949350505050565b600080600060018781548110151561155d57fe5b60009182526020808320909101546040805160e060020a6323b872dd028152336004820152306024820152604481018a90529051600160a060020a03909216936323b872dd9360648084019491939192918390030190829087803b1580156115c457600080fd5b505af11580156115d8573d6000803e3d6000fd5b505050506040513d60208110156115ee57600080fd5b505060018054879081106115fe57fe5b60009182526020808320909101546040805160e060020a6323b872dd028152336004820152306024820152604481018990529051600160a060020a03909216936323b872dd9360648084019491939192918390030190829087803b15801561166557600080fd5b505af1158015611679573d6000803e3d6000fd5b505050506040513d602081101561168f57600080fd5b5050600280546116c59187918b9081106116a557fe5b90600052602060002090600802016001015461276990919063ffffffff16565b92506116fa8460028a8154811015156116da57fe5b90600052602060002090600802016002015461276990919063ffffffff16565b91506117198261170d620f424086612786565b9063ffffffff6127b416565b9050611727888484846127d7565b5050505050505050565b60008060008060006003600060028a81548110151561174c57fe5b906000526020600020906008020160060160019054906101000a9004600160a060020a0316600160a060020a0316600160a060020a031681526020019081526020016000205494506003600060028a8154811015156117a757fe5b6000918252602080832060076008909302019190910154600160a060020a031683528201929092526040019020546001805491955090869081106117e757fe5b60009182526020808320909101546040805160e060020a63a9059cbb028152336004820152602481018c90529051600160a060020a039092169363a9059cbb9360448084019491939192918390030190829087803b15801561184857600080fd5b505af115801561185c573d6000803e3d6000fd5b505050506040513d602081101561187257600080fd5b5050600180548590811061188257fe5b60009182526020808320909101546040805160e060020a63a9059cbb028152336004820152602481018b90529051600160a060020a039092169363a9059cbb9360448084019491939192918390030190829087803b1580156118e357600080fd5b505af11580156118f7573d6000803e3d6000fd5b505050506040513d602081101561190d57600080fd5b5050600280546119439189918b90811061192357fe5b906000526020600020906008020160010154612a5690919063ffffffff16565b92506116fa8660028a81548110151561195857fe5b906000526020600020906008020160020154612a5690919063ffffffff16565b600080600080600080600080600060028e81548110151561199557fe5b906000526020600020906008020160020154985060028e8154811015156119b857fe5b906000526020600020906008020160010154975060028e8154811015156119db57fe5b60009182526020909120600360089092020101546002805463ffffffff9092169850908f908110611a0857fe5b906000526020600020906008020160040154955060028e815481101515611a2b57fe5b90600052602060002090600802016005015494506000809054906101000a9004600160a060020a0316600160a060020a03166329a00e7c8b8b8a8f6040518563ffffffff1660e060020a028152600401808581526020018481526020018363ffffffff1663ffffffff168152602001828152602001945050505050602060405180830381600087803b158015611ac057600080fd5b505af1158015611ad4573d6000803e3d6000fd5b505050506040513d6020811015611aea57600080fd5b50519350611b098b611b03620f424061170d888b612786565b87612a6d565b60408051808201909152601a81527f4d4d5f534c4950504147455f4c494d49545f45584345454445440000000000006020820152901515611b8f5760405160e560020a62461bcd0281526004018080602001828103825283818151815260200191508051906020019080838360008381101561035557818101518382015260200161033d565b50611ba0898563ffffffff612a5616565b9250611bb2888c63ffffffff61276916565b9150611bc58361170d620f424085612786565b905060018d815481101515611bd657fe5b9060005260206000200160009054906101000a9004600160a060020a0316600160a060020a03166323b872dd33308e6040518463ffffffff1660e060020a0281526004018084600160a060020a0316600160a060020a0316815260200183600160a060020a0316600160a060020a031681526020018281526020019350505050602060405180830381600087803b158015611c7057600080fd5b505af1158015611c84573d6000803e3d6000fd5b505050506040513d6020811015611c9a57600080fd5b5050600180548d908110611caa57fe5b60009182526020808320909101546040805160e060020a63a9059cbb028152336004820152602481018990529051600160a060020a039092169363a9059cbb9360448084019491939192918390030190829087803b158015611d0b57600080fd5b505af1158015611d1f573d6000803e3d6000fd5b505050506040513d6020811015611d3557600080fd5b5050604080518f815260208101869052815133927f28cab0d660ed8aedd61a8c9db00b97f6a2d67e07d87795994f440b18bc5f1aa3928290030190a2611d7d8e8385846127d7565b5050505050505050505050505050565b600080600080600080600080600060028e815481101515611daa57fe5b6000918252602091829020600660089092020101546040805180820190915260128152600080516020612c9f8339815191529281019290925260ff161515611e375760405160e560020a62461bcd0281526004018080602001828103825283818151815260200191508051906020019080838360008381101561035557818101518382015260200161033d565b50600280548f908110611e4657fe5b906000526020600020906008020160020154985060028e815481101515611e6957fe5b906000526020600020906008020160010154975060028e815481101515611e8c57fe5b60009182526020909120600360089092020101546002805463ffffffff9092169850908f908110611eb957fe5b906000526020600020906008020160040154955060028e815481101515611edc57fe5b90600052602060002090600802016005015494506000809054906101000a9004600160a060020a0316600160a060020a03166349f9b0f78b8b8a8f6040518563ffffffff1660e060020a028152600401808581526020018481526020018363ffffffff1663ffffffff168152602001828152602001945050505050602060405180830381600087803b158015611f7157600080fd5b505af1158015611f85573d6000803e3d6000fd5b505050506040513d6020811015611f9b57600080fd5b50519350611fba611fb3620f424061170d8e8a612786565b8587612a6d565b60408051808201909152601a81527f4d4d5f534c4950504147455f4c494d49545f455843454544454400000000000060208201529015156120405760405160e560020a62461bcd0281526004018080602001828103825283818151815260200191508051906020019080838360008381101561035557818101518382015260200161033d565b50612051888563ffffffff612a5616565b9250612063898c63ffffffff61276916565b91506120768261170d620f424086612786565b905060018d81548110151561208757fe5b60009182526020808320909101546040805160e060020a63a9059cbb028152336004820152602481018990529051600160a060020a039092169363a9059cbb9360448084019491939192918390030190829087803b1580156120e857600080fd5b505af11580156120fc573d6000803e3d6000fd5b505050506040513d602081101561211257600080fd5b5050600180548d90811061212257fe5b9060005260206000200160009054906101000a9004600160a060020a0316600160a060020a03166323b872dd33308e6040518463ffffffff1660e060020a0281526004018084600160a060020a0316600160a060020a0316815260200183600160a060020a0316600160a060020a031681526020018281526020019350505050602060405180830381600087803b1580156121bc57600080fd5b505af11580156121d0573d6000803e3d6000fd5b505050506040513d60208110156121e657600080fd5b5050604080518f815260208101869052815133927f35ea94addbc62df281ade49cc2ad9b3d9259166170cf702928b4ddc045f7256e928290030190a2611d7d8e8484846127d7565b6000816122428461170d620f424088612786565b14949350505050565b60008060008060008061225d8c612a9a565b95506122688b612a9a565b9450612275868b3361148c565b80156122875750612287858a3361148c565b6040805180820190915260178152600080516020612c7f83398151915260208201529015156122fb5760405160e560020a62461bcd0281526004018080602001828103825283818151815260200191508051906020019080838360008381101561035557818101518382015260200161033d565b5060016005600033600160a060020a0316600160a060020a0316815260200190815260200160002060008e8e6040516020018083600160a060020a0316600160a060020a03166c0100000000000000000000000002815260140182600160a060020a0316600160a060020a03166c01000000000000000000000000028152601401925050506040516020818303038152906040526040518082805190602001908083835b602083106123be5780518252601f19909201916020918201910161239f565b51815160209384036101000a60001901801990921691161790526040805192909401829003909120865285019590955292909201600020805460ff1916941515949094179093555050600180549091508790811061241857fe5b60009182526020808320909101546040805160e060020a6323b872dd028152336004820152306024820152604481018f90529051600160a060020a03909216936323b872dd9360648084019491939192918390030190829087803b15801561247f57600080fd5b505af1158015612493573d6000803e3d6000fd5b505050506040513d60208110156124a957600080fd5b505060018054869081106124b957fe5b60009182526020808320909101546040805160e060020a6323b872dd028152336004820152306024820152604481018e90529051600160a060020a03909216936323b872dd9360648084019491939192918390030190829087803b15801561252057600080fd5b505af1158015612534573d6000803e3d6000fd5b505050506040513d602081101561254a57600080fd5b5050600180548690811061255a57fe5b9060005260206000200160009054906101000a9004600160a060020a0316600160a060020a03166318160ddd6040518163ffffffff1660e060020a028152600401602060405180830381600087803b1580156125b557600080fd5b505af11580156125c9573d6000803e3d6000fd5b505050506040513d60208110156125df57600080fd5b5051600280549195506125f59060018301612bca565b925060028381548110151561260657fe5b90600052602060002090600802019150612621878a86612b9f565b9050338260000160006101000a815481600160a060020a030219169083600160a060020a031602179055508b8260060160016101000a815481600160a060020a030219169083600160a060020a031602179055508a8260070160006101000a815481600160a060020a030219169083600160a060020a0316021790555089826001018190555088826002018190555087826005018190555086826004018190555060018260060160006101000a81548160ff021916908315150217905550808260030160006101000a81548163ffffffff021916908363ffffffff16021790555033600160a060020a03167f17bb6b49ca5e4d3f819d7bacfe56be4359e1e32146032ac3b9163de791b6dac4848c8c8b6040518085815260200184815260200183815260200182815260200194505050505060405180910390a2505050505050505050505050565b60008282018381101561277b57600080fd5b8091505b5092915050565b600080831515612799576000915061277f565b508282028284828115156127a957fe5b041461277b57600080fd5b6000808083116127c357600080fd5b82848115156127ce57fe5b04949350505050565b60008060006127e786868661222e565b60408051808201909152601481527f4d4d5f504f4f4c5f4e4f545f42414c414e434544000000000000000000000000602082015290151561286d5760405160e560020a62461bcd0281526004018080602001828103825283818151815260200191508051906020019080838360008381101561035557818101518382015260200161033d565b506003600060028981548110151561288157fe5b6000918252602080832060076008909302019190910154600160a060020a031683528201929092526040019020546001805491945090849081106128c157fe5b9060005260206000200160009054906101000a9004600160a060020a0316600160a060020a03166318160ddd6040518163ffffffff1660e060020a028152600401602060405180830381600087803b15801561291c57600080fd5b505af1158015612930573d6000803e3d6000fd5b505050506040513d602081101561294657600080fd5b50519150612955848684612b9f565b90508560028881548110151561296757fe5b9060005260206000209060080201600101819055508460028881548110151561298c57fe5b906000526020600020906008020160020181905550836002888154811015156129b157fe5b906000526020600020906008020160040181905550806002888154811015156129d657fe5b6000918252602091829020600360089092020101805463ffffffff9390931663ffffffff199093169290921790915560408051898152918201889052818101879052606082018690525133917f0ba54af4fd4bc8fc69b966d6a9b0328563b99f218383fea300618e520cdb5a71919081900360800190a250505050505050565b60008083831115612a6657600080fd5b5050900390565b6000612a80620f424061170d8487612786565b612a90858563ffffffff612a5616565b1115949350505050565b600160a060020a0381166000908152600460205260408120548190819060ff16151560011415612ae457600160a060020a0384166000908152600360205260409020549250612b98565b50506001805480820182557fb10e2d527612073b26eecdfd717e6a320cf44b4afac2b0732d9fcbe2b7fa0cf68101805473ffffffffffffffffffffffffffffffffffffffff1916600160a060020a03861690811790915560008181526003602090815260408083208590556004825291829020805460ff19169095179094558051838152905186947f61829f7e29cc6a558a9dc69c16ddaa1e2b95ced06dea4af45a5801f79ac7a4fb928290030190a28092505b5050919050565b6000612bc2612bb5620f424061170d8786612786565b61170d620f424086612786565b949350505050565b8154818355818111156109205760008381526020902061092091612c7b9160089182028101918502015b80821115612c7757805473ffffffffffffffffffffffffffffffffffffffff1990811682556000600183018190556002830181905560038301805463ffffffff1916905560048301819055600583015560068201805474ffffffffffffffffffffffffffffffffffffffffff191690556007820180549091169055600801612bf4565b5090565b9056004d4d5f494e53554646494349454e545f42414c414e43450000000000000000004d4d5f504f4f4c5f4e4f545f4143544956450000000000000000000000000000a165627a7a72305820d89d83f632e2f5c09b7d9c4cf802d00772d75028b3a2ace5e1ac7fd46432e8810029",
  "source": "pragma solidity ^0.4.24;\n\n// import \"@aragon/os/contracts/apps/AragonApp.sol\";\n// import \"@aragon/os/contracts/common/IsContract.sol\";\nimport 'openzeppelin-solidity/contracts/math/SafeMath.sol';\nimport 'openzeppelin-solidity/contracts/token/ERC20/SafeERC20.sol';\nimport 'openzeppelin-solidity/contracts/token/ERC20/ERC20.sol';\nimport './bancor-formula/BancorFormula.sol';\n\n\ncontract TokenSwap /*is AragonApp*/ {\n    using SafeERC20 for ERC20;    \n    using SafeMath  for uint256;\n    \n    // bytes32 public constant PROVIDER   = keccak256(\"PROVIDER\");\n    // bytes32 public constant BUYER      = keccak256(\"BUYER\");\n    // bytes32 public constant SELLER     = keccak256(\"SELLER\");\n\n    uint256 public constant PCT_BASE = 10 ** 18; // 0% = 0; 1% = 10 ** 16; 100% = 10 ** 18\n    uint32  public constant PPM = 1000000;  // parts per million\n\n    string private constant ERROR_POOL_NOT_BALANCED                  = \"MM_POOL_NOT_BALANCED\";\n    string private constant ERROR_POOL_NOT_ACTIVE                    = \"MM_POOL_NOT_ACTIVE\";\n    string private constant ERROR_CONTRACT_IS_EOA                    = \"MM_CONTRACT_IS_EOA\";\n    string private constant ERROR_NOT_PROVIDER                       = \"MM_NOT_PROVIDER\";\n    string private constant ERROR_SLIPPAGE_LIMIT_EXCEEDED            = \"MM_SLIPPAGE_LIMIT_EXCEEDED\";\n    string private constant ERROR_POOL_EXISTS                        = \"MM_POOL_EXISTS\";\n    string private constant ERROR_INSUFFICIENT_BALANCE               = \"MM_INSUFFICIENT_BALANCE\";\n\n    struct Pool{\n        address provider;\n        uint256 tokenAsupply;\n        uint256 tokenBsupply;\n        uint32  reserveRatio;\n        uint256 exchageRate;\n        uint256 slippage;\n        bool    isActive;\n        address tokenA;  \n        address tokenB; \n    }\n    \n    IBancorFormula public formula;\n    ERC20[]        public tokens;\n    Pool[]         public pools;\n\n    mapping (address => uint256) initializedTokens; \n    mapping (address => bool) tokensExist; \n    mapping (address => mapping (bytes32 => bool)) poolProviders; \n\n    event PoolCreated       (\n        address indexed provider, \n        uint256 id, \n        uint256 tokenAsupply, \n        uint256 tokenBsupply, \n        uint256 exchangeRate\n    );\n    event PoolDataUpdated   (\n        address indexed reciever, \n        uint256 id, \n        uint256 tokenAsupply, \n        uint256 tokenBsupply, \n        uint256 exchangeRate\n    );\n    event PoolClosed        (\n        address indexed provider, \n        uint256 id \n    );\n\n    event TokenInitialized   (\n        address indexed token, \n        uint256 id \n    );\n\n    event TokenBought   (\n        address indexed buyer, \n        uint256 poolid,\n        uint256 amount \n    );\n\n    event TokenSold   (\n        address indexed buyer, \n        uint256 poolid,\n        uint256 amount \n    );\n\n\n    /***** external function *****/\n    \n    /**\n    * @notice Initialize tokenswap contract\n    * @param _formula The address of the BancorFormula [computation] contract\n    */\n    function initialize(IBancorFormula _formula) external /*onlyInit*/ {\n        // initialized();\n        // require(isContract(_formula), ERROR_CONTRACT_IS_EOA);            \n        formula = _formula;\n    }\n\n    /* pool related functions */\n\n    /**\n    * @notice Creates the pool of swappable tokens \n    * @param _tokenAaddress           Address of token A contract\n    * @param _tokenBaddress           Address of token B contract\n    * @param _tokenAsupply            Supply of tokens A in the pool\n    * @param _tokenBsupply            Supply of tokens B in the pool\n    * @param _slippage                Maximum slippage\n    * @param _exchangeRate            The price of token B in token A\n    */\n\n    function createPool(\n        address    _tokenAaddress, \n        address    _tokenBaddress,\n        uint256    _tokenAsupply,\n        uint256    _tokenBsupply,\n        uint256    _slippage,\n        uint256    _exchangeRate     \n    ) \n        external \n        // auth(PROVIDER)\n    {\n        require(_isBalanced(_tokenAsupply, _tokenBsupply, _exchangeRate),  \n                ERROR_POOL_NOT_BALANCED );\n        // require(isContract(_tokenAaddress) && isContract(_tokenAaddress), \n        //         ERROR_CONTRACT_IS_EOA);\n        require(!poolProviders[msg.sender][keccak256(abi.encodePacked(_tokenAaddress, _tokenBaddress))], \n                ERROR_POOL_EXISTS);\n\n        _createPool(_tokenAaddress, _tokenBaddress, _tokenAsupply, _tokenBsupply, _slippage, _exchangeRate);\n    } \n\n    /**\n    * @notice Closes the pool, returns all balances to the liquidity provider \n    * @param _poolId Id of the pool needed to be closed\n    */\n\n    function closePool(uint256 _poolId) external /*auth(PROVIDER)*/ {\n        require(msg.sender == pools[_poolId].provider, ERROR_NOT_PROVIDER);\n        require(pools[_poolId].isActive, ERROR_POOL_NOT_ACTIVE);\n        \n        _closePool(_poolId);        \n    }\n\n    /**\n    * @notice Adds liquidity to the pool\n    * @param _tokenAliquidity number of token A to be added to the pool \n    * @param _tokenBliquidity number of token B to be added to the pool\n    */\n\n    function addLiquidity(\n        uint256 _poolId, \n        uint256 _tokenAliquidity, \n        uint256 _tokenBliquidity\n    ) \n        external \n        // auth(PROVIDER)    \n    {\n        require(msg.sender == pools[_poolId].provider, ERROR_NOT_PROVIDER);\n        require(pools[_poolId].isActive, ERROR_POOL_NOT_ACTIVE);\n\n        //get tokens id        \n        uint tokenAid = initializedTokens[pools[_poolId].tokenA];\n        uint tokenBid = initializedTokens[pools[_poolId].tokenB];\n\n        require(_sufficientBalance(tokenAid, _tokenAliquidity, msg.sender) && _sufficientBalance(tokenBid, _tokenBliquidity, msg.sender), \n                ERROR_INSUFFICIENT_BALANCE);\n\n        _addLiquidity(_poolId, tokenAid, tokenBid, _tokenAliquidity, _tokenBliquidity);\n    }\n\n    /**\n    * @notice Removes liquidity from the pool, returns tokens to the liquidity provider\n    * @param _tokenAliquidity number of token A to be returned to the liquidity provider \n    * @param _tokenBliquidity number of token B to be returned to the liquidity provider\n    */\n    function removeLiquidity(\n        uint256 _poolId, \n        uint256 _tokenAliquidity, \n        uint256 _tokenBliquidity        \n    ) \n        external \n        // auth(PROVIDER)\n    {\n        require(msg.sender == pools[_poolId].provider, ERROR_NOT_PROVIDER);\n        require(pools[_poolId].isActive, ERROR_POOL_NOT_ACTIVE);\n        require(_tokenAliquidity < pools[_poolId].tokenAsupply && _tokenBliquidity < pools[_poolId].tokenBsupply,\n                ERROR_INSUFFICIENT_BALANCE);\n        \n        _removeLiquidity(_poolId, _tokenAliquidity, _tokenBliquidity);\n    }\n\n    /**\n    * @notice Buy tokens B from the liquidity pool\n    * @param _poolId id of the pool \n    * @param _tokenAamount the price in tokens B which is going to be payed for tokens B\n    */\n    function buy(uint256 _poolId, uint256 _tokenAamount) external /*auth(BUYER)*/ {\n        require(pools[_poolId].isActive, ERROR_POOL_NOT_ACTIVE);\n  \n        uint256 tokenAid          = initializedTokens[pools[_poolId].tokenA];\n        uint256 tokenBid          = initializedTokens[pools[_poolId].tokenB];\n        uint256 totalTokenBsupply = tokens[tokenBid].totalSupply();\n\n        require(_sufficientBalance(tokenAid, _tokenAamount, msg.sender), \n                ERROR_INSUFFICIENT_BALANCE);\n\n        _buy(_poolId,\n             tokenAid,\n             tokenBid, \n             _tokenAamount, \n             totalTokenBsupply \n             );\n    }\n\n    /**\n    * @notice Sell tokens B to the liquidity pool\n    * @param _poolId id of the pool \n    * @param _tokenBamount the amount of tokens B which is going to be echanged for tokens A\n    */\n    function sell(uint256 _poolId, uint256 _tokenBamount) public /*auth(SELLER)*/ {\n        \n        uint256 tokenAid          = initializedTokens[pools[_poolId].tokenA];\n        uint256 tokenBid          = initializedTokens[pools[_poolId].tokenB];\n        uint256 totalTokenBsupply = tokens[tokenBid].totalSupply();\n\n        require(_sufficientBalance(tokenBid, _tokenBamount, msg.sender), \n                ERROR_INSUFFICIENT_BALANCE);\n\n        _sell(_poolId,\n             tokenAid,\n             tokenBid, \n             _tokenBamount, \n             totalTokenBsupply);\n    }\n\n    /***** internal functions *****/\n    \n    /***** calculation functions *****/\n\n    /**\n    * @notice Calculate reserve ratio\n    * @param _exchangeRate     The price of token A in token B\n    * @param _tokenSupply      Supply of token B in the pool\n    * @param _totalTokenSupply Total token B supply(should be removed)\n    */\n    function _getReserveRatio(\n        uint256 _exchangeRate, \n        uint256 _tokenSupply, \n        uint256 _totalTokenSupply\n    )   \n        internal\n        pure\n        returns(uint32)\n    {\n        return uint32(uint256(PPM).mul(_tokenSupply).div(_exchangeRate.mul(_totalTokenSupply).div(uint256(PPM))));\n    }\n\n    /**\n    * @notice Checks if the pool setup is balanced\n    * @param _supplyA      The number of tokens A\n    * @param _supplyB      The number of tokens B\n    * @param _exchangeRate The price of token A in token B\n    */\n    function _isBalanced(\n        uint256 _supplyA, \n        uint256 _supplyB, \n        uint256 _exchangeRate\n    )\n        internal\n        pure\n        returns(bool)\n    {\n        return (uint256(PPM).mul(_supplyA).div(_supplyB) == _exchangeRate);\n    }\n\n    /**\n    * @notice Calculates is the trade passing slippage limit\n    * @param _expectedPrice  Expected price in tokens A\n    * @param _actualPrice    Price calculates by Bancor formula\n    * @param _slippage       Maximum slippage in percentage\n    */\n    function _slippageLimitPassed(\n        uint _expectedPrice, \n        uint _actualPrice, \n        uint _slippage\n    )\n        internal\n        pure\n        returns(bool)\n    {\n\n        return _expectedPrice.sub(_actualPrice) <= _slippage.mul(_expectedPrice).div(PPM);\n    }\n\n    /* tokens related functions */\n\n    /**\n    * @notice Initializes new token in the system\n    * @param _tokenAddress address of a token\n    */\n\n    function _initializeToken(address _tokenAddress) internal returns(uint) {\n        if(tokensExist[_tokenAddress] == true){\n            return initializedTokens[_tokenAddress];\n        } else {\n            ERC20 token   = ERC20(_tokenAddress);\n            uint  tokenId = tokens.length;\n\n            tokens.push(token);\n            initializedTokens[_tokenAddress] = tokenId;               \n            tokensExist[_tokenAddress] = true;               \n\n            emit TokenInitialized(_tokenAddress, tokenId);\n            return tokenId;            \n        }\n    }\n\n    /**\n    * @notice Checks token balance of an account\n    * @param _tokenId token id in the system\n    * @param _sendAmount amount of tokens willing to be sent\n    * @param _sender account of a sender\n    */\n    function _sufficientBalance(\n        uint256 _tokenId, \n        uint256 _sendAmount,\n        address _sender\n    ) \n        internal\n        view\n        returns(bool) \n    {\n        uint256 balance = tokens[_tokenId].balanceOf(_sender);\n        return balance >= _sendAmount;\n    }\n\n    /* state modifiying functions */\n    \n    function _createPool(\n        address    _tokenAaddress, \n        address    _tokenBaddress,\n        uint256    _tokenAsupply,\n        uint256    _tokenBsupply,\n        uint256    _slippage,\n        uint256    _exchangeRate     \n    )\n        internal\n    {\n        //initialize tokens\n        uint  tokenAid = _initializeToken(_tokenAaddress); \n        uint  tokenBid = _initializeToken(_tokenBaddress);\n\n        require(_sufficientBalance(tokenAid, _tokenAsupply, msg.sender) && _sufficientBalance(tokenBid, _tokenBsupply, msg.sender), \n                ERROR_INSUFFICIENT_BALANCE);\n\n        poolProviders[msg.sender][keccak256(abi.encodePacked(_tokenAaddress, _tokenBaddress))] = true;\n\n        //transfer tokens\n        tokens[tokenAid].transferFrom(msg.sender, address(this), _tokenAsupply);       \n        tokens[tokenBid].transferFrom(msg.sender, address(this), _tokenBsupply);       \n\n        uint256 totalTokenBsupply = tokens[tokenBid].totalSupply();\n\n        uint _id = pools.length++;\n        Pool storage p = pools[_id];\n\n        uint32 reserveRatio = _getReserveRatio(_exchangeRate, \n                                               _tokenBsupply, \n                                               totalTokenBsupply);\n        p.provider     = msg.sender;\n        p.tokenA       = _tokenAaddress;\n        p.tokenB       = _tokenBaddress;\n        p.tokenAsupply = _tokenAsupply;\n        p.tokenBsupply = _tokenBsupply;\n        p.slippage     = _slippage;\n        p.exchageRate  = _exchangeRate;\n        p.isActive     = true;\n        p.reserveRatio = reserveRatio;\n\n        emit PoolCreated(msg.sender, _id, _tokenAsupply, _tokenBsupply, _exchangeRate);\n    }\n\n    function _closePool(uint256 _poolId) internal {\n        //get tokens id        \n        uint tokenAid = initializedTokens[pools[_poolId].tokenA];\n        uint tokenBid = initializedTokens[pools[_poolId].tokenB];\n\n        //transfer tokens\n        tokens[tokenAid].transfer(msg.sender, pools[_poolId].tokenAsupply);\n        tokens[tokenBid].transfer(msg.sender, pools[_poolId].tokenBsupply);\n\n        pools[_poolId].isActive     = false;\n        pools[_poolId].tokenAsupply = 0;\n        pools[_poolId].tokenBsupply = 0;\n        pools[_poolId].reserveRatio = 0;\n        pools[_poolId].slippage     = 0;\n        pools[_poolId].exchageRate  = 0;\n\n        poolProviders[msg.sender][keccak256(abi.encodePacked(pools[_poolId].tokenA, pools[_poolId].tokenB))] = false;\n\n        emit PoolClosed(msg.sender, _poolId);\n\n    } \n\n    /**\n    * @notice Updates the pool based on trade execution \n    * @param _tokenAsupply           Supply of tokens A in the pool\n    * @param _tokenBsupply           Supply of tokens B in the pool\n    * @param _exchangeRate           The price of token B in token A\n    */\n    function _updatePoolData(\n        uint256    _poolId,\n        uint256    _tokenAsupply,\n        uint256    _tokenBsupply,\n        uint256    _exchangeRate // the price of token B in token A\n    ) \n        internal \n    {\n        require(_isBalanced(_tokenAsupply, _tokenBsupply, _exchangeRate), ERROR_POOL_NOT_BALANCED );\n \n        uint256 tokenBid          = initializedTokens[pools[_poolId].tokenB];\n        uint256 totalTokenBsupply = tokens[tokenBid].totalSupply();\n\n        uint32  reserveRatio = _getReserveRatio(_exchangeRate, \n                                              _tokenBsupply, \n                                              totalTokenBsupply);\n\n        pools[_poolId].tokenAsupply = _tokenAsupply;\n        pools[_poolId].tokenBsupply = _tokenBsupply;\n        pools[_poolId].exchageRate  = _exchangeRate;\n        pools[_poolId].reserveRatio = reserveRatio;\n\n        emit PoolDataUpdated(msg.sender, _poolId, _tokenAsupply, _tokenBsupply, _exchangeRate);\n    }\n\n\n    function _addLiquidity(\n        uint256 _poolId, \n        uint256 _tokenAid, \n        uint256 _tokenBid,\n        uint256 _tokenAliquidity, \n        uint256 _tokenBliquidity\n    ) \n        internal \n    {\n        //transfer tokens\n        tokens[_tokenAid].transferFrom(msg.sender, address(this), _tokenAliquidity);       \n        tokens[_tokenBid].transferFrom(msg.sender, address(this), _tokenBliquidity);       \n        \n        uint256 tokenAsupply = pools[_poolId].tokenAsupply.add(_tokenAliquidity);\n        uint256 tokenBsupply = pools[_poolId].tokenBsupply.add(_tokenBliquidity);\n        uint256 exchangeRate = uint256(PPM).mul(tokenAsupply).div(tokenBsupply);\n        \n        _updatePoolData(_poolId, tokenAsupply, tokenBsupply, exchangeRate);\n\n    }\n\n    function _removeLiquidity(\n        uint256 _poolId, \n        uint256 _tokenAliquidity, \n        uint256 _tokenBliquidity        \n    )\n        internal\n    {\n        //get tokens id        \n        uint tokenAid = initializedTokens[pools[_poolId].tokenA];\n        uint tokenBid = initializedTokens[pools[_poolId].tokenB];\n\n        //transfer tokens\n        tokens[tokenAid].transfer(msg.sender, _tokenAliquidity);\n        tokens[tokenBid].transfer(msg.sender, _tokenBliquidity);\n        \n        uint256 tokenAsupply = pools[_poolId].tokenAsupply.sub(_tokenAliquidity);\n        uint256 tokenBsupply = pools[_poolId].tokenBsupply.sub(_tokenBliquidity);\n        uint256 exchangeRate = uint256(PPM).mul(tokenAsupply).div(tokenBsupply);\n        \n        _updatePoolData(_poolId, tokenAsupply, tokenBsupply, exchangeRate);\n\n    }\n\n    function _buy(\n        uint   _poolId,\n        uint   _tokenAid,\n        uint   _tokenBid, \n        uint   _tokenAamount,\n        uint   _totalTokenBsupply                  \n    ) \n        internal \n    {\n\n        uint256 _poolBalance        = pools[_poolId].tokenBsupply;\n        uint256 _reserveBalance     = pools[_poolId].tokenAsupply;\n        uint32  _connectorWeight    = pools[_poolId].reserveRatio; \n        uint256 _staticPrice        = pools[_poolId].exchageRate;                \n        uint256 _slippage           = pools[_poolId].slippage;\n\n        uint256 sendAmount = formula.calculatePurchaseReturn(_totalTokenBsupply, \n                                                             _poolBalance, \n                                                             _connectorWeight, \n                                                             _tokenAamount);\n\n     require(_slippageLimitPassed(_tokenAamount, sendAmount.mul(_staticPrice).div(PPM), _slippage),\n            ERROR_SLIPPAGE_LIMIT_EXCEEDED);\n   \n\n        uint256 poolBalance          = _poolBalance.sub(sendAmount); \n        uint256 reserveBalance       = _reserveBalance.add(_tokenAamount);\n        uint256 newPrice             = uint256(PPM).mul(reserveBalance).div(poolBalance);\n   \n        //transfer tokens\n        tokens[_tokenAid].transferFrom(msg.sender, address(this), _tokenAamount);       \n        tokens[_tokenBid].transfer(msg.sender, sendAmount);       \n\n        emit TokenBought(msg.sender, _poolId, sendAmount);\n        _updatePoolData(_poolId, reserveBalance, poolBalance, newPrice);\n    }\n\n\n    function _sell(\n        uint   _poolId,\n        uint   _tokenAid,\n        uint   _tokenBid, \n        uint   _tokenBamount,\n        uint   _totalTokenBsupply                  \n    ) \n        internal\n    {\n        require(pools[_poolId].isActive, ERROR_POOL_NOT_ACTIVE);\n\n        uint256 _poolBalance        = pools[_poolId].tokenBsupply;\n        uint256 _reserveBalance     = pools[_poolId].tokenAsupply;\n        uint32  _connectorWeight    = pools[_poolId].reserveRatio; \n        uint256 _staticPrice        = pools[_poolId].exchageRate;                \n        uint256 _slippage           = pools[_poolId].slippage;  \n\n        uint256 sendAmount  = formula.calculateSaleReturn(_totalTokenBsupply, \n                                                  _poolBalance, \n                                                  _connectorWeight, \n                                                  _tokenBamount);\n\n        require(_slippageLimitPassed(_tokenBamount.mul(_staticPrice).div(PPM), sendAmount, _slippage),\n            ERROR_SLIPPAGE_LIMIT_EXCEEDED);\n        \n        uint reserveBalance       = _reserveBalance.sub(sendAmount);\n        uint poolBalance          = _poolBalance.add(_tokenBamount); \n        uint newPrice             = uint256(PPM).mul(reserveBalance).div(poolBalance);\n\n        //transfer tokens\n        tokens[_tokenAid].transfer(msg.sender, sendAmount);       \n        tokens[_tokenBid].transferFrom(msg.sender, address(this), _tokenBamount);       \n\n        emit TokenSold(msg.sender, _poolId, sendAmount);\n        _updatePoolData(_poolId, reserveBalance, poolBalance, newPrice);\n    }\n}",
  "sourcePath": "/home/x332/Projects/curvelabs/frontend-challenge/contracts/TokenSwap.sol",
  "compiler": {
    "name": "solc",
    "version": "0.4.24+commit.e67f0147.Emscripten.clang"
  },
  "schemaVersion": "3.1.0",
  "updatedAt": "2020-07-14T10:12:13.206Z",
  "devdoc": {
    "methods": {
      "addLiquidity(uint256,uint256,uint256)": {
        "params": {
          "_tokenAliquidity": "number of token A to be added to the pool ",
          "_tokenBliquidity": "number of token B to be added to the pool"
        }
      },
      "buy(uint256,uint256)": {
        "params": {
          "_poolId": "id of the pool ",
          "_tokenAamount": "the price in tokens B which is going to be payed for tokens B"
        }
      },
      "closePool(uint256)": {
        "params": {
          "_poolId": "Id of the pool needed to be closed"
        }
      },
      "createPool(address,address,uint256,uint256,uint256,uint256)": {
        "params": {
          "_exchangeRate": "The price of token B in token A",
          "_slippage": "Maximum slippage",
          "_tokenAaddress": "Address of token A contract",
          "_tokenAsupply": "Supply of tokens A in the pool",
          "_tokenBaddress": "Address of token B contract",
          "_tokenBsupply": "Supply of tokens B in the pool"
        }
      },
      "initialize(address)": {
        "params": {
          "_formula": "The address of the BancorFormula [computation] contract"
        }
      },
      "removeLiquidity(uint256,uint256,uint256)": {
        "params": {
          "_tokenAliquidity": "number of token A to be returned to the liquidity provider ",
          "_tokenBliquidity": "number of token B to be returned to the liquidity provider"
        }
      },
      "sell(uint256,uint256)": {
        "params": {
          "_poolId": "id of the pool ",
          "_tokenBamount": "the amount of tokens B which is going to be echanged for tokens A"
        }
      }
    }
  },
  "userdoc": {
    "methods": {
      "addLiquidity(uint256,uint256,uint256)": {
        "notice": "Adds liquidity to the pool"
      },
      "buy(uint256,uint256)": {
        "notice": "Buy tokens B from the liquidity pool"
      },
      "closePool(uint256)": {
        "notice": "Closes the pool, returns all balances to the liquidity provider "
      },
      "createPool(address,address,uint256,uint256,uint256,uint256)": {
        "notice": "Creates the pool of swappable tokens "
      },
      "initialize(address)": {
        "notice": "Initialize tokenswap contract"
      },
      "removeLiquidity(uint256,uint256,uint256)": {
        "notice": "Removes liquidity from the pool, returns tokens to the liquidity provider"
      },
      "sell(uint256,uint256)": {
        "notice": "Sell tokens B to the liquidity pool"
      }
    }
  }
}